:080D6400000000000000000087
:030CAC0001440000
:100CE4007F02120C36C0077F01120C36D0E04FFE93
:100CF400C0067F03120C36D0E04FFEC0067F0412FC
:080D04000C36D0E04FF544224B
:1009420078217C007D007BFF7A0D79647E007F0830
:100952001208D0E4F529120C72E544703E1208F632
:10096200FF540FF521EF54F0C4540FF5227523FF05
:1009720090000112090FFF540FF524EF54F0C454F4
:100982000FF5257526FF90000212090FFF540FF58F
:1009920027EF54F0C4540FF528803F90000312094A
:1009A2000FFF540FF521EF54F0C4540FF5229000BD
:1009B2000412090FFF540FF523EF54F0C4540FF53E
:1009C2002490000612090FFF540FF525EF54F0C4CE
:1009D200540FF526E4F527752802E4F529C3E52925
:1009E2009408748094805012E52904FF742125290B
:0A09F200F8E6FD120BA9052980E3C9
:0109FC0022D8
:100D3100120D597BFF7A0C79E47FF47E01120D0CC0
:050D410012094280FBD5
:100D0C00D2AFD2A9C2B95389F0438901D28CC28D1A
:100D1C00758A67758CFC8E3D8F3E8E3F8F408B4164
:050D2C008A4289432208
:03000B00020B5194
:100B5100C0E0C0F0C083C082C0D075D000C000C06A
:100B610001C002C003C004C005C006C007758A6782
:100B7100758CFCE5401540AE3F7002153F4E700D7F
:100B8100853D3F853E40AA42A94312093CD007D08A
:100B910006D005D004D003D002D001D000D0D0D0EF
:080BA10082D083D0F0D0E032D5
:070D6C000000000000000080
:100CAF00012007011F8E02088000071181838587AD
:100CBF00898B8D070A80828486888A8C071847184B
:050CCF000011040122E8
:010D7300225D
:0B0D5900E4F521FB7A007918020BF78B
:100C7200E4F52A782B7C00FD7BFF7A0D796CFE7FF0
:100C8200071208D0E4F52AE52AC3952050157411FD
:100C9200252AF8E6FF120AF0742B252AF8A6070582
:090CA2002A80E47B007A00792B22
:010CAB002226
:060BF7008B228A238924F1
:100BFD00E4F525AD09AF1F120A89E4F525E525C3F6
:100C0D009520501E740A2525F8E6FFAB22AA23A9CC
:100C1D002485258275830012090FFD120A89052589
:090C2D0080DBAD08AF1F020A894B
:020AF000A90754
:100AF200E4FDFBC2B5C2B6D2B5EDC39408748094CE
:100B02008050227E007401A805088005C333CE33CD
:100B1200CED8F9FFE9F582EF558224FF92B4D2B61E
:100B2200C2B60D80D4E4FDEDC39408748094805065
:100B32001730B40DA8057401088002C333D8FC42F3
:0E0B420003D2B6C2B60D80DFC2B5C2B4AF0397
:010B50002282
:020A8900A907BB
:100A8B00E4FBC2B5C2B6D2B5EBC3940874809480B4
:100A9B0050227E007401A803088005C333CE33CEE9
:100AAB00D8F9FFE9F582EF558224FF92B4D2B6C292
:100ABB00B60B80D4E4FBEBC3940874809480502273
:100ACB007E007401A803088005C333CE33CED8F95A
:100ADB00FFEDF582EF558224FF92B4D2B6C2B60B6E
:040AEB0080D4C2B53C
:010AEF0022E4
:0F0CD400013C000A323F065B4F666D7D077F6F64
:100D46007D64EF1FAA0670011E4A60061DED60F263
:020D560080FA21
:010D58002278
:100BA900EFFB7A00D3940074809480400EEB940993
:100BB900748094805005EF14FF80027F00E4F5A053
:100BC900EF1392A2EFA2E192A3A2E292A4EDC39441
:100BD9000A74809480500974322DF8E6F5808003F8
:0D0BE900853C807F017E00120D46853C801A
:010BF60022DC
:100C3600752100752214EF24FE60131460191460E8
:100C46001F2403702420B1037F01227F002220B0DD
:100C5600037F01227F002220B2037F01227F002230
:0B0C660020B3037F01227F00227F00EB
:010C71002260
:030000000209FDF5
:0C09FD00787FE4F6D8FD758144020A44BE
:10080000E709F608DFFA8046E709F208DFFA803EDA
:1008100088828C83E709F0A3DFFA8032E309F608C7
:10082000DFFA8078E309F208DFFA807088828C832F
:10083000E309F0A3DFFA806489828A83E0A3F608E3
:10084000DFFA805889828A83E0A3F208DFFA804CBD
:1008500080D280FA80C680D4806980F28033801094
:1008600080A680EA809A80A880DA80E280CA8033FD
:1008700089828A83ECFAE493A3C8C582C8CCC58375
:10088000CCF0A3C8C582C8CCC583CCDFE9DEE78045
:100890000D89828A83E493A3F608DFF9ECFAA9F0C4
:1008A000EDFB2289828A83ECFAE0A3C8C582C8CC1A
:1008B000C583CCF0A3C8C582C8CCC583CCDFEADE33
:1008C000E880DB89828A83E493A3F208DFF980CC95
:1008D00088F0EF60010E4E60C388F0ED2402B4048E
:1008E0000050B9F582EB2402B4040050AF23234535
:0608F00082239008507302
:1008F600BB010689828A83E0225002E722BBFE0200
:09090600E32289828A83E4932232
:10090F00BB010CE58229F582E5833AF583E022509D
:10091F0006E92582F8E622BBFE06E92582F8E222E7
:0D092F00E58229F582E5833AF583E4932201
:06093C008A838982E47346
:100A0900020D31E493A3F8E493A34003F68001F2C5
:100A190008DFF48029E493A3F85407240CC8C333EE
:100A2900C4540F4420C8834004F456800146F6DFBD
:100A3900E4800B0102040810204080900CACE47E95
:100A4900019360BCA3FF543F30E509541FFEE493B2
:100A5900A360010ECF54C025E060A840B8E493A379
:100A6900FAE493A3F8E493A3C8C582C8CAC583CAA4
:100A7900F0A3C8C582C8CAC583CADFE9DEE780BE5C
:010CE3000010
:00000001FF
