:0C0A79000A083F065B4F666D7D077F6F2B
:100A0C00EFFB7A00D3940074809480400EEB940931
:100A1C00748094805005EF14FF80027F00E4F5A0F1
:100A2C00EF1392A2EFA2E192A3A2E292A4EDC394DF
:100A3C000A74809480500774082DF8E6F5807F01C5
:080A4C007E00120A59E4F58056
:010A5400227F
:1008000075120075137CE4F514F5157F011209B813
:10081000EF60080513E513700205127F021209B894
:10082000EF6008E5131513700215127F031209B863
:10083000EF600BE51325E0F513E51233F5127F04A5
:100840001209B8EF600BE512C313F512E51313F5A7
:1008500013D3E51394FFE51294FF4004D2A5800260
:10086000C2A575160075170A751800751901E4F50B
:1008700014F515C3E5159405E51464809480508B38
:10088000AC16AD17AE12AF13120963AE18AF19CF85
:10089000CDCFCECCCE120963AD07E51504FF120A09
:1008A0000CAE16AF177C007D0A1209518E168F17F9
:1008B000AE18AF191209518E188F190515E515706C
:0508C000B2051480AE3A
:040A5500AF03AE023B
:0A0A5900EF1FAC0670011E4C601583
:100A6300751A01751B2CE51B151B7002151A14450D
:050A73001A60E380F1B0
:010A7800225B
:0209B800AD0789
:1009BA007B147A00EF24FE601814602314602E243E
:1009CA0003703C20B108120A5530B1FD80287F001F
:1009DA002220B008120A5530B0FD801A7F0022206A
:1009EA00B208120A5530B2FD800C7F002220B30CE7
:1009FA00120A5530B3FD120A557F01227F00227F69
:010A0A0000EB
:010A0B0022C8
:030000000208C52E
:0C08C500787FE4F6D8FD75811B02090C59
:10095100EF8DF0A4A8F0CF8CF0A428CE8DF0A42EBA
:02096100FE2274
:10096300BC000BBE0029EF8DF084FFADF022E4CC78
:10097300F875F008EF2FFFEE33FEEC33FCEE9DEC41
:10098300984005FCEE9DFE0FD5F0E9E4CEFD22ED87
:10099300F8F5F0EE8420D21CFEADF075F008EF2FD1
:1009A300FFED33FD4007985006D5F0F222C398FDC2
:0509B3000FD5F0EA225F
:1008D100020800E493A3F8E493A34003F68001F235
:1008E10008DFF48029E493A3F85407240CC8C33328
:1008F100C4540F4420C8834004F456800146F6DFF7
:10090100E4800B0102040810204080900A79E47E03
:10091100019360BCA3FF543F30E509541FFEE493EB
:10092100A360010ECF54C025E060A840B8E493A3B2
:10093100FAE493A3F8E493A3C8C582C8CAC583CADD
:10094100F0A3C8C582C8CAC583CADFE9DEE780BE95
:010A85000070
:00000001FF
