:100C05001428003F0006005B004F0066006D007D64
:060C15000007007F006FE4
:040B7D008C1E8D1F1E
:100B8100D3EF9400EE94004011EF9409EE940050DD
:100B910009EF24FFFFEE34FF80027F00E4F5A0EFB0
:100BA1001392A2EFA2E192A3A2E292A4C3E51F9441
:100BB1000AE51E9400500BE51F25E02428F808E6FD
:100BC100F5807F017E007D007C00120BDAE4F58068
:010BD1002201
:10096300E4F50BF50AF509F508F50CF50D7F017EA5
:1009730000120B21EF4E6015E50B2401F50BE43556
:100983000AF50AE43509F509E43508F5087F027E1E
:1009930000120B21EF4E6018E50B24FFF50BE50A5F
:1009A30034FFF50AE50934FFF509E50834FFF508D6
:1009B3007F037E00120B21EF4E6015AF0BAE0AAD25
:1009C30009AC0878011209308F0B8E0A8D098C0847
:1009D3007F047E00120B21EF4E6015AF0BAE0AAD04
:1009E30009AC08780112091D8F0B8E0A8D098C083A
:1009F300E475190AF518F517F516751D01F51CF5BB
:100A03001BF51AF50CF50DC3E50D9404E50C648094
:100A130094804003020970E50D2401FFE4350CFEC8
:100A2300C006C007AB19AA18A917A816AF0BAE0AC0
:100A3300AD09AC0812088BAC00AD01AE02AF03AB3D
:100A43001DAA1CA91BA81A12088BAD07AC06D00758
:100A5300D006120B7DAF19AE18AD17AC16E47B0AA6
:100A6300FAF9F81208008F198E188D178C16AF1D1E
:100A7300AE1CAD1BAC1AE47B0AFAF9F81208008F1E
:100A83001D8E1C8D1B8C1A050DE50D7002050C02C5
:020A93000A0A4D
:080BD200AF21AE20AD1FAC1EE7
:100BDA008F258E248D238C22782274FF120945ECEE
:050BEA004D4E4F6015A7
:100BEF0075260175272CE527152770021526144544
:050BFF002660E080F11A
:010C040022CD
:040B2100AB07AA066E
:100B2500E4752114F520F51FF51EEE7047EF24FE40
:100B3500601514601F1460292403703820B1351224
:100B45000BD230B1FD802320B008120BD230B0FD9E
:100B55008018802020B208120BD230B2FD800B80A5
:100B65001320B30E120BD230B3FD120BD27E007FD1
:070B750001228000E4FEFFF5
:010B7C002256
:03000000020A955C
:0C0A9500787FE4F6D8FD75813B020ADC96
:10080000E88FF0A4CC8BF0A42CFCE98EF0A42CFC97
:100810008AF0EDA42CFCEA8EF0A4CDA8F08BF0A415
:100820002DCC3825F0FDE98FF0A42CCD35F0FCEB74
:100830008EF0A4FEA9F0EB8FF0A4CFC5F02ECD3939
:0F084000FEE43CFCEAA42DCE35F0FDE43CFC22A6
:10084F0075F008758200EF2FFFEE33FECD33CDCC60
:10085F0033CCC58233C5829BED9AEC99E5829840E3
:10086F000CF582EE9BFEED9AFDEC99FC0FD5F0D6C0
:10087F00E4CEFBE4CDFAE4CCF9A88222B800C1B9EA
:10088F000059BA002DEC8BF084CFCECDFCE5F0CB28
:10089F00F97818EF2FFFEE33FEED33FDEC33FCEB61
:1008AF0033FB10D703994004EB99FB0FD8E5E4F91C
:1008BF00FA227818EF2FFFEE33FEED33FDEC33FC09
:1008CF00C933C910D7059BE99A4007EC9BFCE99AFD
:1008DF00F90FD8E0E4C9FAE4CCFB2275F010EF2F42
:1008EF00FFEE33FEED33FDCC33CCC833C810D70742
:1008FF009BEC9AE899400AED9BFDEC9AFCE899F87D
:0E090F000FD5F0DAE4CDFBE4CCFAE4C8F9220F
:10091D00E8600FECC313FCED13FDEE13FEEF13FFB8
:03092D00D8F122DC
:10093000E8600FEFC333FFEE33FEED33FDEC33FC25
:03094000D8F122C9
:100943007401FF3395E0FEFDFC080808E6CF2FF69F
:1009530018E6CE3EF618E6CD3DF618E6CC3CF62278
:100AA100020963E493A3F8E493A34003F68001F2FF
:100AB10008DFF48029E493A3F85407240CC8C33356
:100AC100C4540F4420C8834004F456800146F6DF25
:100AD100E4800B0102040810204080900C05E47EA4
:100AE100019360BCA3FF543F30E509541FFEE4931A
:100AF100A360010ECF54C025E060A840B8E493A3E1
:100B0100FAE493A3F8E493A3C8C582C8CAC583CA0B
:100B1100F0A3C8C582C8CAC583CADFE9DEE780BEC3
:010C1B0000D8
:00000001FF
