:03094300010A00A6
:03000B0002088C5C
:10088C00C0E0C0F0C083C082C0D075D000C000C032
:10089C0001C002C003C004C005C006C007758A674A
:1008AC00758CFCAF0A150AEF70187F011208E9EF7E
:1008BC006004B2A1800A7F021208E9EF6002B2A2C2
:1008CC00B2A0D007D006D005D004D003D002D001FE
:0D08DC00D000D0D0D082D083D0F0D0E03258
:10092500D2AFD2A9C2B95389F0438901D28CC28D05
:07093500758A67758CFC2236
:07093C00120925C2A080FE94
:1008E900750800750914EF24FE601314601914606B
:1008F9001F2403702420B1037F01227F002220B02E
:10090900037F01227F002220B2037F01227F002280
:0B09190020B3037F01227F00227F003B
:0109240022B0
:03000000020800F3
:0C080000787FE4F6D8FD75810A020847F5
:10080C0002093CE493A3F8E493A34003F68001F2BD
:10081C0008DFF48029E493A3F85407240CC8C333ED
:10082C00C4540F4420C8834004F456800146F6DFBC
:10083C00E4800B0102040810204080900943E47E00
:10084C00019360BCA3FF543F30E509541FFEE493B1
:10085C00A360010ECF54C025E060A840B8E493A378
:10086C00FAE493A3F8E493A3C8C582C8CAC583CAA3
:10087C00F0A3C8C582C8CAC583CADFE9DEE780BE5B
:0109460000B0
:00000001FF
