:03094200010A00A7
:03000B0002088C5C
:10088C00C0E0C0F0C083C082C0D075D000C000C032
:10089C0001C002C003C004C005C006C007758A674A
:1008AC00758CFCAF0A150AEF70167F011208E7EF82
:1008BC006002B2A17F021208E7EF6002B2A2B2A0FE
:1008CC00D007D006D005D004D003D002D001D00080
:0B08DC00D0D0D082D083D0F0D0E0322A
:10092300D2AFD2A9C2B95389F0438901D28CC28D07
:07093300758A67758CFC2238
:08093A0012092375A0FF80FEE5
:1008E700750800750914EF24FE601314601914606D
:1008F7001F2403702420B1037F01227F002220B030
:10090700037F01227F002220B2037F01227F002282
:0B09170020B3037F01227F00227F003D
:0109220022B2
:03000000020800F3
:0C080000787FE4F6D8FD75810A020847F5
:10080C0002093AE493A3F8E493A34003F68001F2BF
:10081C0008DFF48029E493A3F85407240CC8C333ED
:10082C00C4540F4420C8834004F456800146F6DFBC
:10083C00E4800B0102040810204080900942E47E01
:10084C00019360BCA3FF543F30E509541FFEE493B1
:10085C00A360010ECF54C025E060A840B8E493A378
:10086C00FAE493A3F8E493A3C8C582C8CAC583CAA3
:10087C00F0A3C8C582C8CAC583CADFE9DEE780BE5B
:0109450000B1
:00000001FF
