:03092800010800C3
:03000B000208E800
:1008E800C0E0C0D075D000C007758A67758CFCAFB2
:1008F800081508EF70057508E8B2A0D007D0D0D069
:02090800E032DB
:10090A00D2AFD2A9C2B95389F0438901D28CC28D20
:07091A00758A67758CFC2251
:0709210012090AC2A080FECA
:03092C008F09220E
:10088C007D147C00EF24FE601A146027146034245D
:10089C0003704620B10AAF0512092C30B1FD802E31
:1008AC007F002220B00AAF0512092C30B0FD801E4B
:1008BC007F002220B20AAF0512092C30B2FD800E47
:1008CC007F002220B310AF0512092C30B3FDAF0509
:0B08DC0012092C7F01227F00227F0008
:0108E70022EE
:03000000020800F3
:0C080000787FE4F6D8FD758109020847F6
:10080C00020921E493A3F8E493A34003F68001F2D8
:10081C0008DFF48029E493A3F85407240CC8C333ED
:10082C00C4540F4420C8834004F456800146F6DFBC
:10083C00E4800B0102040810204080900928E47E1B
:10084C00019360BCA3FF543F30E509541FFEE493B1
:10085C00A360010ECF54C025E060A840B8E493A378
:10086C00FAE493A3F8E493A3C8C582C8CAC583CAA3
:10087C00F0A3C8C582C8CAC583CADFE9DEE780BE5B
:01092B0000CB
:00000001FF
