:040896007F147E004D
:0A089A00EF1FAC0670011E4C601544
:1008A40075080175092CE509150970021508144528
:0508B4000860E380F183
:0108B900221C
:10080000EE7047EF24FE601514601F146029240366
:10081000703820B13512089630B1FD802320B00821
:1008200012089630B0FD8018802020B20812089679
:1008300030B2FD800B801320B30E12089630B3FD4A
:0E0840001208967E007F01228000E4FEFF2257
:10084E00E4FD7F017E00120800EF4E60050DEDF411
:10085E00F5A07F027E00120800EF4E60051DEDF43C
:10086E00F5A07F037E00120800EF4E6007EDC31364
:10087E00FDF4F5A07F047E00120800EF4E60C3ED7C
:08088E0025E0FDF4F5A080BA9D
:030000000208BA39
:0C08BA00787FE4F6D8FD75810902084E35
:00000001FF
